S00E000053414D4537302E7372656389
S214400000E82440205D044000590440005904400064
S21440001059044000590440005904400000000000C4
S21440002000000000000000000000000059044000EE
S21440003059044000000000005904400059044000A4
S21440004059044000590440005904400059044000F7
S21440005059044000590440005904400059044000E7
S2144000605904400000000000810240009502400014
S214400070A902400059044000590440005904400079
S214400080BD024000D10240005904400059044000DF
S21440009059044000590440005904400059044000A7
S2144000A05904400059044000590440005904400097
S2144000B05904400059044000590440005904400087
S2144000C05904400059044000590440005904400077
S2144000D000000000590440000000000059044000A1
S2144000E05904400059044000590440005904400057
S2144000F05904400059044000590440005904400047
S2144001005904400059044000590440005904400036
S21440011059044000000000000000000000000000FD
S2144001205904400059044000590440005904400016
S21440013059044000000000005904400059044000A3
S21440014010B5054C237833B9044B13B10448AFF3CC
S21440015000800123237010BD3404402000000000BE
S214400160EC0940000C4B43B10C480D4910B5AFF3B9
S21440017000800C48036823B910BD0A48036833B9A9
S2144001807047094B002BF7D0BDE810401847064B88
S214400190002BF5D0184700BF00000000EC094000D7
S2144001A038044020EC0940000000000010B510481C
S2144001B0104B98473E2100200F4B98470F4CA047C6
S2144001C00028FCD00E4B98470E4A0F4B9A620F4CB5
S2144001D0A0470028FCD002200D4B984700200D4B2E
S2144001E098470D4B98470248024B984710BD00BFB2
S2144001F000A3E1113106400081034000D5034000D2
S214400200E5034000013F182000060E40F50340007D
S214400210E50240001D034000250540000AB901667E
S214400220704741667047C06C7047806C70470000EE
S2144002302DE9F041044688460E4B98470546204631
S2144002400D4B9847054013D00C4C04F1600603E074
S214400250B4420DD010345DB120684045F8D1616895
S2144002602942F5D0E3689847636825EA0305EFE737
S214400270BDE8F081270240002B0240005004402099
S21440028008B50A210148024B984708BD000E0E40AB
S2144002903102400008B50B210148024B984708BD83
S2144002A000100E403102400008B50C210148024BB8
S2144002B0984708BD00120E403102400008B5102194
S2144002C00148024B984708BD00140E4031024000DA
S2144002D008B511210148024B984708BD00160E404C
S2144002E031024000032811D0042812D002280CBF47
S2144002F04FF480710021084A136B23F440730B437C
S2144003001363936E13F0080FFBD070474FF44071A1
S214400310F1E74FF40071EEE700060E40174A136B04
S21440032023F0700318431063936E13F0080F0AD13E
S2144003304FF4805311498A6E12F0080F03D1013BE7
S214400340F9D1012070470D4A136B23F0030343F0A5
S21440035002031363936E13F0080F0AD14FF48053D1
S21440036006498A6E12F0080F05D1013BF9D10120EB
S2144003707047002070470020704700BF00060E40C0
S214400380A0B90E48036A090289B20D4A1A400D4BBD
S2144003901343194301620246936E13F0010FFBD0DC
S2144003A0064A116A084B0B431362704703490B6AAF
S2144003B0064A1A40064B13430B62704700060E402F
S2144003C0FCFFC8FF0100370000003701FCFFC8FEF5
S2144003D002003701024B986E00F48030704700BF31
S2144003E000060E404FF00052014B9A62704700BF25
S2144003F000060E40024B986E00F00200704700BFA9
S21440040000060E403F281ED81F280CD8114B9A696C
S21440041001238340934318D0012303FA00F00D4B89
S21440042018610020704720380A4BD3F80821012372
S214400430834093430BD0012303FA00F0054BC3F8E7
S21440044000010020704701207047002070470020C0
S214400450704700BF00060E40FEE7000000B583B0C0
S214400460254B264A9A4210D0254B234A9A420CD214
S214400470013B9B1A23F00303043313441F4951F8EE
S214400480040B42F8040B9A42F9D11E4B1E4A9A427C
S2144004900AD2013B9B1A23F0030304331344002182
S2144004A042F8041B9342FBD1184A194B23F07F03B2
S2144004B09360EFF31083B3FA83F35B09019372B64C
S2144004C0BFF35F8F0022134B1A700199124A1368CC
S2144004D043F470031360BFF34F8FBFF36F8F29B1A0
S2144004E001220C4B1A70BFF35F8F62B60B4B9847D6
S2144004F00B4B9847FEE700BF00004020EC09400049
S21440050034044020E40440203404402000ED00E061
S214400510000040000000402088ED00E05508400004
S214400520E10740003B4B1B6B03F00303012B1DD040
S21440053083B1022B36D0374B1B6B03F07003702B06
S2144005405FD0344B1A6B3449C2F302120B68D34067
S2144005500B607047314B5B6913F0800F14BF4FF44C
S21440056000424FF4FA422C4B1A60E4E7294B1B6AD0
S21440057013F0807F03D02A4A274B1A60DBE7294ACC
S214400580254B1A60234B1B6A03F07003102B05D0D3
S214400590202BD0D1224A204B1A60CCE7224A1E4B51
S2144005A01A60C8E71B4B1B6A13F0807F16D01C4AA4
S2144005B0194B1A60174B1B6B03F00303022BBAD17F
S2144005C0144A916A926A1448C1F30A41036801FBCF
S2144005D00333D2B2B3FBF2F30360ACE7114A0E4BDF
S2144005E01A600C4B1B6A03F07003102B05D0202BAF
S2144005F0E0D10B4A084B1A60DCE70B4A064B1A6000
S214400600D8E7054A13680949A1FB03135B08136042
S214400610704700BF00060E400400402010180E40F1
S214400620001BB70000093D0000127A00ABAAAAAA38
S214400630124B984211D9124B984213D9114B9842FB
S21440064014D9114B984215D9104B984294BF4FF08D
S21440065004220F4A0F4B1A6070474FF080620D4BD2
S2144006601A6070470C4A0B4B1A6070470B4A094B8E
S2144006701A6070470A4A074B1A607047FF2C3101D0
S214400680FF596202FF869303FFB3C404FFE0F505FB
S21440069000050004000C0E400001000400020004A7
S2144006A00003000470B504460D46164641610160DD
S2144006B012F0010F08D1256216F0080F08D116F087
S2144006C0020F0AD1656270BD0122054B9847F2E7DA
S2144006D0C4F88450C4F88C5070BDC4F8805070BDC7
S2144006E01D024000054B03FB00F0002804DD0023FC
S2144006F000BF01339842FBD1704700BFF04902006B
S2144007002DE9F04180460F460524C826064DC8F818
S21440071030703046A847C8F834703046A847013C89
S214400720F5D1BDE8F08100BFE50640002DE9F04177
S214400730234B98474FF40042224B5A600A20224EE1
S214400740B0471020B047214C0123236023616363E8
S21440075063652366DFF8848000224FF08051404670
S2144007601B4FB8470C20B0470C20B047194D4FF0F0
S21440077080432B602B616B636B652B6600224FF0CA
S21440078000412846B8470B20B0470A20B047124BD6
S21440079004221A601A615A635A651A6600224FF498
S2144007A000212046B8474FF08053C8F864304FF0D9
S2144007B000436B664FF400236366BDE8F08100BFDC
S2144007C0AD01400050180E4005044000000E0E409B
S2144007D0A506400000120E4000100E4000140E40C9
S2144007E008B5164B9847164E164D174C09E0012390
S2144007F06B630FE04FF08043636314E00422134BB7
S2144008005A63B36BF36B13F0805FF0D10121284637
S2144008100F4B9847A36BE36B002BEBDB4FF080410D
S21440082020460B4B9847AB6BEB6B13F4002FE5D190
S21440083004210648064B9847E3E700BF2D074000D3
S21440084000140E40000E0E4000120E4000100E40E7
S2144008500107400070B50F4E0F4D761BB61018BFFF
S214400860002405D0013455F8043B9847A642F9D1F8
S2144008700A4E0B4D761B00F0A7F8B61018BF0024A2
S21440088006D0013455F8043B9847A642F9D170BDCE
S21440089070BD00BFD4094000D4094000DC094000C8
S2144008A0D4094000024B13B1024800F005B8704727
S2144008B000000000C5084000002301461A461846BE
S2144008C000F01EB838B50A4C0A4D641BA4100AD076
S2144008D004F18043013B05EB8305013C55F80439A0
S2144008E09847002CF9D1BDE8384000F077B800BFF3
S2144008F0EC094000E8094000704700BF704700BF61
S2144009002DE9F8432C4D0646286898460F469146F2
S214400910FFF7F2FF294B1C68D4F84831002B3ED035
S2144009205A681F2A1CDC02F1010E76B103EB8201E5
S2144009300124C1F88890D3F8880194402043022EC1
S214400940C3F88801C1F8088123D00232C3F804E016
S214400950286843F82270FFF7D1FF0020BDE8F883EF
S214400960174B0BB34FF4C870AFF300800346D8B1B3
S214400970D4F848210260002141600A46C4F8480184
S2144009804FF0010EC0F88811C0F88C11002EDCD054
S214400990CCE7D3F88C110C43C3F88C41D5E704F56B
S2144009A0A673C4F84831BBE72868FFF7A7FF4FF0A7
S2144009B0FF30BDE8F88300BF30044020C409400043
S2144009C00000000008004020F8B500BFF8BC08BC96
S2144009D09E467047A508400065014000F8B500BF38
S2104009E0F8BC08BC9E4670474101400031
S2144009EC0100000000093D0000000000F402402019
S2144009FC5C034020C40340200000000000000000C0
S214400A0C0000000000000000000000000000000095
S214400A1C0000000000000000000000000000000085
S214400A2C0000000000000000000000000000000075
S214400A3C0000000000000000000000000000000065
S214400A4C0000000000000000000000000000000055
S214400A5C0000000000000000000000000000000045
S214400A6C0000000000000000000000000000000035
S214400A7C0000000000000000000000000000000025
S214400A8C0000000000000000000000000000000015
S214400A9C01000000000000000E33CDAB34126DE6B2
S214400AACECDE05000B00000000000000000000001B
S214400ABC00000000000000000000000000000000E5
S214400ACC00000000000000000000000000000000D5
S214400ADC00000000000000000000000000000000C5
S214400AEC00000000000000000000000000000000B5
S208400E1CC004402069
S80440045D5A
